:020000040800F2
:100000000028002079180008091800080F180008B7
:10001000151800081B18000821180008000000002F
:100020000000000000000000000000002718000889
:1000300033180008000000003F1800084B180008A3
:10004000C1180008C1180008C1180008C11800082C
:10005000C1180008C1180008C1180008C11800081C
:10006000C1180008C1180008C1180008C11800080C
:10007000C1180008C1180008C1180008C1180008FC
:10008000C1180008C1180008C1180008C1180008EC
:10009000C1180008C1180008C1180008C1180008DC
:1000A000C1180008C1180008C1180008C1180008CC
:1000B00059180008C118000800000000C118000805
:1000C000C11800080000000000000000C11800086E
:1000D00000000000C1180008C1180008000000005E
:1000E000C1180008C1180008C1180008000000006D
:1000F0000000000000000000000000000000000000
:0C01000000000000000000005FF808F1A3
:10010C0010B5054C237833B9044B13B10448AFF345
:10011C0000800123237010BD50000020000000005F
:10012C00182F000808B5034B1BB103490348AFF364
:10013C00008008BD0000000054000020182F0008AB
:10014C0080B582B000AF78607B68092B00F28081AB
:10015C0001A252F823F000BF8D010008D501000860
:10016C001D02000865020008AD020008F502000837
:10017C003D03000885030008CD03000815040008A2
:10018C0000220121B54801F098FE00220221B3485B
:10019C0001F093FE00220421B04801F08EFE0022F3
:1001AC000821AE4801F089FE00221021AB4801F075
:1001BC0084FE00222021A94801F07FFE012240216B
:1001CC00A64801F07AFE44E101220121A34801F086
:1001DC0074FE00220221A14801F06FFE00220421CE
:1001EC009E4801F06AFE012208219C4801F065FE40
:1001FC0001221021994801F060FE0122202197482C
:10020C0001F05BFE01224021944801F056FE20E1F2
:10021C0000220121914801F050FE002202218F485A
:10022C0001F04BFE012204218C4801F046FE002215
:10023C0008218A4801F041FE00221021874801F074
:10024C003CFE01222021854801F037FE002240218E
:10025C00824801F032FEFCE0002201217F4801F0CF
:10026C002CFE002202217D4801F027FE00220421F1
:10027C007A4801F022FE00220821784801F01DFE88
:10028C0001221021754801F018FE0122202173482B
:10029C0001F013FE00224021704801F00EFED8E060
:1002AC00012201216D4801F008FE002202216B4859
:1002BC0001F003FE00220421684801F0FEFD01223A
:1002CC000821664801F0F9FD01221021634801F074
:1002DC00F4FD00222021614801F0EFFD00224021B5
:1002EC005E4801F0EAFDB4E0002201215B4801F018
:1002FC00E4FD01220221594801F0DFFD0022042116
:10030C00564801F0DAFD00220821544801F0D5FDD1
:10031C0001221021514801F0D0FD002220214F482C
:10032C0001F0CBFD002240214C4801F0C6FD90E0CD
:10033C0000220121494801F0C0FD01220221474859
:10034C0001F0BBFD00220421444801F0B6FD00225F
:10035C000821424801F0B1FD002210213F4801F074
:10036C00ACFD002220213D4801F0A7FD00224021D8
:10037C003A4801F0A2FD6CE000220121374801F05F
:10038C009CFD00220221354801F097FD002204213A
:10039C00324801F092FD01220821304801F08DFD18
:1003AC00012210212D4801F088FD012220212B482B
:1003BC0001F083FD01224021284801F07EFD48E038
:1003CC0000220121254801F078FD0022022123485A
:1003DC0001F073FD00220421204801F06EFD002283
:1003EC0008211E4801F069FD002210211B4801F074
:1003FC0064FD00222021194801F05FFD00224021FC
:10040C00164801F05AFD24E000220121134801F0A6
:10041C0054FD00220221114801F04FFD002204215D
:10042C000E4801F04AFD002208210C4801F045FD60
:10043C0001221021094801F040FD0022202107482B
:10044C0001F03BFD00224021044801F036FD00E0A4
:10045C0000BF00BF0837BD4680BD00BF000C014087
:10046C0080B582B000AF78607B68092B00F2BC814C
:10047C0001A252F823F000BFAD04000801050008EA
:10048C0055050008A9050008FD05000851060008DF
:10049C00A5060008F90600084D070008A10700088A
:1004AC0000228021D34801F008FD00224FF4807116
:1004BC00D04801F002FD00224FF40071CD4801F04C
:1004CC00FCFC00224FF48061CA4801F0F6FC0022CB
:1004DC004FF40061C74801F0F0FC00224FF480514A
:1004EC00C44801F0EAFC01224FF48041C14801F0FC
:1004FC00E4FC7AE101228021BE4801F0DEFC0022FE
:10050C004FF48071BB4801F0D8FC00224FF400710D
:10051C00B84801F0D2FC01224FF48061B54801F0DB
:10052C00CCFC01224FF40061B24801F0C6FC012260
:10053C004FF48051AF4801F0C0FC01224FF48041D0
:10054C00AC4801F0BAFC50E100228021A94801F02E
:10055C00B4FC00224FF48071A64801F0AEFC0122DD
:10056C004FF40071A34801F0A8FC00224FF4806105
:10057C00A04801F0A2FC00224FF400619D4801F05C
:10058C009CFC01224FF480519A4801F096FC002209
:10059C004FF48041974801F090FC26E10022802125
:1005AC00944801F08AFC00224FF48071914801F0CC
:1005BC0084FC00224FF400718E4801F07EFC002276
:1005CC004FF480618B4801F078FC01224FF40061FC
:1005DC00884801F072FC01224FF48051854801F0EB
:1005EC006CFC00224FF48041824801F066FCFCE078
:1005FC00012280217F4801F060FC00224FF48071C1
:10060C007C4801F05AFC00224FF40071794801F04B
:10061C0054FC01224FF48061764801F04EFC01221B
:10062C004FF40061734801F048FC00224FF48051F4
:10063C00704801F042FC00224FF480416D4801F0FB
:10064C003CFCD2E0002280216A4801F036FC0122F9
:10065C004FF48071674801F030FC00224FF40071B8
:10066C00644801F02AFC00224FF48061614801F0DB
:10067C0024FC01224FF400615E4801F01EFC0022B4
:10068C004FF480515B4801F018FC00224FF480417C
:10069C00584801F012FCA8E000228021554801F0D6
:1006AC000CFC01224FF48071524801F006FC002230
:1006BC004FF400714F4801F000FC00224FF48061B0
:1006CC004C4801F0FAFB00224FF40061494801F05C
:1006DC00F4FB00224FF48051464801F0EEFB00225F
:1006EC004FF48041434801F0E8FB7EE0002280217A
:1006FC00404801F0E2FB00224FF480713D4801F0CC
:10070C00DCFB00224FF400713A4801F0D6FB0122C9
:10071C004FF48061374801F0D0FB01224FF40061A7
:10072C00344801F0CAFB01224FF48051314801F0EA
:10073C00C4FB01224FF480412E4801F0BEFB54E073
:10074C00002280212B4801F0B8FB00224FF480716D
:10075C00284801F0B2FB00224FF40071254801F04B
:10076C00ACFB00224FF48061224801F0A6FB002272
:10077C004FF400611F4801F0A0FB00224FF48051A0
:10078C001C4801F09AFB00224FF48041194801F0FB
:10079C0094FB2AE000228021164801F08EFB0022F7
:1007AC004FF48071134801F088FB00224FF4007164
:1007BC00104801F082FB00224FF480610D4801F0DB
:1007CC007CFB01224FF400610A4801F076FB002209
:1007DC004FF48051074801F070FB00224FF4804128
:1007EC00044801F06AFB00E000BF00BF0837BD46BB
:1007FC0080BD00BF000C014080B483B000AF7860B6
:10080C007B680D4A82FB03129210DB17D31A0B4A3A
:10081C0013607968084B83FB01239A10CB17D21A0B
:10082C0013469B0013445B00CA1A044B5A6000BF6A
:10083C000C37BD4680BC7047676666666C0000204E
:10084C0080B582B000AF78601B4B1B68002B02D0C8
:10085C00012B18D02CE000224FF48051174801F0E6
:10086C002CFB01224FF40051144801F026FB786850
:10087C00FFF7C2FF124B1B681846FFF7F1FD0E4B3A
:10088C0001221A6014E001224FF480510B4801F050
:10089C0014FB00224FF40051084801F00EFB084BEA
:1008AC005B681846FFF7DCFD034B00221A6000BFA3
:1008BC0000BF0837BD4680BD7C0000200008014009
:1008CC006C00002080B483B000AF78607B680D4A68
:1008DC0082FB03129210DB17D31A0B4A93607968D0
:1008EC00084B83FB01239A10CB17D21A13469B009B
:1008FC0013445B00CA1A044BDA6000BF0C37BD46C8
:10090C0080BC7047676666666C00002080B582B05C
:10091C0000AF78601B4B1B68002B02D0012B18D04A
:10092C002CE000224FF48061174801F0C6FA012236
:10093C004FF40061144801F0C0FA7868FFF7C2FF69
:10094C00124B9B681846FFF7FBFB0E4B01221A60FB
:10095C0014E001224FF480610B4801F0AEFA002242
:10096C004FF40061084801F0A8FA084BDB68184600
:10097C00FFF7E6FB034B00221A6000BF00BF0837ED
:10098C00BD4680BD80000020000801406C000020A6
:10099C0080B483B000AF7860094A7B6852F823308A
:1009AC00012B06D1064A7B68002142F82310012353
:1009BC0000E0002318460C37BD4680BC704700BFD2
:1009CC008400002080B483B000AF7860044A7B6858
:1009DC00012142F8231000BF0C37BD4680BC704784
:1009EC008400002080B582B000AF00237B608CE0D7
:1009FC004A4A7B6852F8232049497B6841F82320F6
:100A0C00484A7B6852F8232044497B6841F82320EC
:100A1C007B68002B0AD14FF40051434801F036FAA1
:100A2C00034619463F4A7B6842F823107B68012B2A
:100A3C000AD14FF480413D4801F028FA034619468B
:100A4C00384A7B6842F823107B68022B0AD14FF49A
:100A5C000041364801F01AFA03461946314A7B68C0
:100A6C0042F823102E4A7B6852F823202B497B68CE
:100A7C0051F823309A4245D1284A7B6852F82320FA
:100A8C0028497B6851F823309A423BD1284A7B682D
:100A9C0052F8232023497B6851F823309A421BD00B
:100AAC00204A7B6852F8232021497B6841F8232097
:100ABC001C4A7B6852F82330002B03D17868FFF76F
:100ACC0081FF1FE01B4A7B68002142F823101A4B60
:100ADC004FF496721A6015E0174B1B68013B164ACF
:100AEC001360154B1B68002B0CD1124A7B6801213B
:100AFC0042F82310104B32221A600D4A7B680121F8
:100B0C0042F823107B6801337B607B68022B7FF7F4
:100B1C006FAF00BF00BF0837BD4680BD0C00002082
:100B2C0000000020180000200010014000080140C7
:100B3C0024000020900000203000002080B500AF81
:100B4C00994B1B68043B032B00F2F78301A252F86C
:100B5C0023F000BF710B0008D50F000835110008F9
:100B6C0057120008914B1B68032B00F2EC8001A27A
:100B7C0052F823F0910B0008D10B0008490C000827
:100B8C00C90C000801222021894801F096F90122A4
:100B9C004021874801F091F901228021844801F01D
:100BAC008CF9844B1B68844A82FB03125211DB17AD
:100BBC00D31A824A13607D4B01221A60642000F024
:100BCC0021FDC0E000222021794801F076F90122B4
:100BDC004021774801F071F901228021744801F01D
:100BEC006CF9774B1B68012B09D1744B1B681846A9
:100BFC00FFF726FE734B1B68184600F017FD724B6F
:100C0C001B68012B40F09A806C4B1B68013B6B4AB4
:100C1C0013606A4B1B68002B0CD1644B03221A60C7
:100C2C006A4B1B68644A82FB03125211DB17D31AFE
:100C3C00624A1360642000F0E5FC7FE00122202171
:100C4C005B4801F03AF900224021594801F035F98E
:100C5C0001228021564801F030F9594B1B68012BB9
:100C6C0009D1564B1B681846FFF7EAFD554B1B681C
:100C7C00184600F0DBFC544B1B68012B60D14F4B2A
:100C8C001B68013B4D4A13604C4B1B681846FFF721
:100C9C00D7FD4A4B1B68002B0CD1444B01221A6028
:100CAC00444B1B68444A82FB03125211DB17D31AC4
:100CBC00424A1360642000F0A5FC41E0012220218F
:100CCC003B4801F0FAF801224021394801F0F5F8CF
:100CDC0000228021364801F0F0F8394B1B68012BBB
:100CEC0009D1364B1B681846FFF7AAFD354B1B681C
:100CFC00184600F09BFC344B1B68012B22D12F4B68
:100D0C001B68013B2D4A13602C4B1B681846FFF7E0
:100D1C0097FD2A4B1B68002B0CD1244B02221A6026
:100D2C002B4B1B68244A82FB03125211DB17D31A7C
:100D3C00224A1360642000F065FC03E000BF02E06F
:100D4C0000BF00E000BF234B1B68032B00F20781A0
:100D5C0001A252F823F000BF750D0008E90D000840
:100D6C00610E0008E10E000801220121104801F07B
:100D7C00A4F8012202210E4801F09FF8012204215F
:100D8C000B4801F09AF8114B1B680B4A82FB0312BB
:100D9C005211DB17D31A104A13600E4B03221A6040
:100DAC00642000F057FCDAE09C000020A00000203A
:100DBC0000080140340000201F85EB51AC000020DE
:100DCC00C000002040000020B800002038000020A7
:100DDC003C000020A4000020B000002000220121D3
:100DEC00AA4801F06AF801220221A84801F065F82E
:100DFC0001220421A54801F060F8A54B1B68012BCA
:100E0C0009D1A44B1B681846FFF780FDA24B1B6849
:100E1C00184600F033FCA14B1B68012B40F09A8064
:100E2C009C4B1B68013B9B4A13609A4B1B68002B25
:100E3C000CD19B4B03221A609A4B1B689A4A82FB7B
:100E4C0003125211DB17D31A924A1360642000F07C
:100E5C0001FC7FE0012201218C4801F02EF80022D8
:100E6C0002218A4801F029F801220421874801F067
:100E7C0024F8874B1B68012B09D1864B1B6818463D
:100E8C00FFF744FD844B1B68184600F0F7FB834BBF
:100E9C001B68012B60D17F4B1B68013B7D4A1360A3
:100EAC007C4B1B681846FFF7CBFC7A4B1B68002B5E
:100EBC000CD17B4B01221A607C4B1B687A4A82FB5B
:100ECC0003125211DB17D31A724A1360642000F01C
:100EDC00C1FB41E0012201216C4800F0EEFF012230
:100EEC0002216A4800F0E9FF00220421674800F063
:100EFC00E4FF674B1B68012B09D1664B1B68184636
:100F0C00FFF704FD644B1B68184600F0B7FB634BFE
:100F1C001B68012B22D15F4B1B68013B5D4A1360A0
:100F2C005C4B1B681846FFF78BFC5A4B1B68002B5D
:100F3C000CD15B4B02221A605D4B1B685A4A82FB38
:100F4C0003125211DB17D31A524A1360642000F0BB
:100F5C0081FB03E000BF02E000BF00E000BF002007
:100F6C00FFF716FD0346002B00F0E981012220213A
:100F7C00464800F0A2FF01224021444800F09DFFAA
:100F8C0001228021414800F098FF012201213F48B5
:100F9C0000F093FF012202213C4800F08EFF012259
:100FAC0004213A4800F089FF424B05221A600120C7
:100FBC0000F028FB012000F039FB012000F04AFB77
:100FCC00012000F05BFBBAE100224FF480612F4856
:100FDC0000F073FF01224FF400612C4800F06DFF0C
:100FEC000220FFF7ADF8344B1B68012B09D1334BB2
:100FFC001B681846FFF724FC274B1B68184600F0AB
:10100C0001FB2F4B1B68012B1ED120211F4800F028
:10101C006CFF012240211D4800F04FFF012280216E
:10102C001A4800F04AFF0121184800F05EFF012227
:10103C000221164800F041FF01220421134800F060
:10104C003CFF322000F0F2FA0120FFF7A1FC03462E
:10105C00002B0DD0194B1B680133184A1360174B2A
:10106C001B68632B40F36D81144B00221A6068E1FE
:10107C000220FFF78DFC0346002B23D00F4B1B687F
:10108C00642202FB03F3094A13605AE10008014091
:10109C00D0000020B000002040000020C80000203C
:1010AC00A4000020380000201F85EB5134000020E4
:1010BC003C0000209C000020B8000020A80000206C
:1010CC00C00000200020FFF763FC0346002B00F05B
:1010DC003881012220219E4800F0EFFE01224021A0
:1010EC009B4800F0EAFE01228021994800F0E5FEC1
:1010FC0001220121964800F0E0FE012202219448D1
:10110C0000F0DBFE01220421914800F0D6FE914B49
:10111C0006221A60904B00221A60012000F072FA2D
:10112C00012000F083FA0CE100224FF48061884822
:10113C0000F0C3FE01224FF40061854800F0BDFEB3
:10114C000320FEF7FDFF854B1B68012B09D1824B59
:10115C001B681846FFF774FB814B1B68184600F0A0
:10116C0051FA804B1B68012B1ED10122202178489B
:10117C0000F0A3FE4021764800F0B7FE012280214A
:10118C00734800F09AFE01220121714800F095FE8F
:10119C0002216F4800F0A9FE012204216C4800F0E6
:1011AC008CFE322000F042FA0120FFF7F1FB0346DF
:1011BC00002B0BD0684B1B680133674A1360664BDE
:1011CC001B68632B02DD644B00221A600220FFF7C0
:1011DC00DFFB0346002B06D05F4B1B68642202FB2F
:1011EC0003F3614A13600020FFF7D2FB0346002B88
:1011FC0000F0A98001222021554800F05EFE01225A
:10120C004021534800F059FE01228021504800F043
:10121C0054FE012201214E4800F04FFE0122022112
:10122C004B4800F04AFE01220421494800F045FEDB
:10123C00484B07221A60484B00221A60012000F02C
:10124C00E1F9012000F0F2F97DE000224FF4806119
:10125C003F4800F032FE01224FF400613C4800F0A0
:10126C002CFE0420FEF76CFF3C4B1B68012B09D1B4
:10127C00394B1B681846FFF7E3FA394B1B681846C5
:10128C0000F0C0F9374B1B68012B1ED10122202125
:10129C002F4800F012FE012240212D4800F00DFED7
:1012AC0080212B4800F021FE01220121284800F06A
:1012BC0004FE01220221264800F0FFFD04212448EF
:1012CC0000F013FE322000F0B1F90120FFF760FBB3
:1012DC000346002B0BD0204B1B6801331E4A1360B6
:1012EC001D4B1B68632B02DD1B4B00221A60022076
:1012FC00FFF74EFB0346002B06D0174B1B686422EE
:10130C0002FB03F3194A13600020FFF741FB03466D
:10131C00002B1AD00F4B04221A600F4B00221A60BC
:10132C00134B00221A60134B00221A60012000F0AC
:10133C0069F9012000F07AF907E000BF06E000BF70
:10134C0004E000BF02E000BF00E000BF00BF80BDB2
:10135C00000801409C000020A8000020B8000020DC
:10136C0040000020C00000203C000020380000207D
:10137C00A0000020A400002080B500AF00F09CFA73
:10138C0000F028F800F0AEF800F060F80D4801F01D
:10139C00FDF9012000F036F9012000F047F9012099
:1013AC0000F058F9012000F069F9074B04221A608B
:1013BC00064B00221A60064B00221A60FFF7BEFB98
:1013CC00FCE700BFD40000209C000020A0000020FF
:1013DC00A400002080B590B000AF07F118032822BC
:1013EC000021184601F08AFD3B1D00221A605A604C
:1013FC009A60DA601A610223BB610123BB6210237D
:10140C00FB6200237B6307F11803184600F086FD8E
:10141C000346002B01D000F0EFF80F237B60002374
:10142C00BB600023FB6000233B6100237B613B1D01
:10143C000021184600F0F2FF0346002B01D000F00B
:10144C00DBF800BF4037BD4680BD000080B586B0DC
:10145C0000AF07F1080300221A605A609A60DA6044
:10146C003B4600221A605A601D4B4FF080421A60B6
:10147C001B4B41F63F725A60194B00229A60184B75
:10148C000922DA60164B00221A61154B00229A6170
:10149C00134801F02BF90346002B01D000F0ACF8F7
:1014AC004FF48053BB6007F1080319460C4801F058
:1014BC00C1FA0346002B01D000F09EF800233B60DC
:1014CC0000237B603B461946054801F089FC034626
:1014DC00002B01D000F090F800BF1837BD4680BD3E
:1014EC00D400002080B588B000AF07F110030022B3
:1014FC001A605A609A60DA60354B9B69344A43F043
:10150C0010039361324B9B6903F01003FB60FB6883
:10151C002F4B9B692E4A43F0040393612C4B9B6920
:10152C0003F00403BB60BB68294B9B69284A43F05A
:10153C0008039361264B9B6903F008037B607B686F
:10154C00002243F6E741234800F0B7FC002245F6A1
:10155C00FF71214800F0B1FC4FF400533B610023B4
:10156C007B610123BB6107F1100319461B4800F096
:10157C0013FB43F6E7433B6101237B610023BB6113
:10158C000223FB6107F110031946124800F004FB1B
:10159C0045F6FF733B6101237B610023BB61022392
:1015AC00FB6107F1100319460B4800F0F5FA4FF4F4
:1015BC0040433B6100237B610123BB6107F11003B6
:1015CC001946044800F0E8FA00BF2037BD4680BD3C
:1015DC000010024000080140000C014000100140C6
:1015EC0080B582B000AF786000F05CF8FFF7FAF9D4
:1015FC0000BF0837BD4680BD80B400AF72B600BFD7
:10160C00FEE7000080B483B000AF7860054A7B68C9
:10161C001360054B00221A6000BF0C37BD4680BC1E
:10162C00704700BFB4000020B800002080B483B025
:10163C0000AF7860054A7B681360054B00221A6086
:10164C0000BF0C37BD4680BC704700BFBC000020FB
:10165C00C000002080B483B000AF7860054A7B687E
:10166C001360054B00221A6000BF0C37BD4680BCCE
:10167C00704700BFC4000020C800002080B483B0B5
:10168C0000AF7860054A7B681360054B00221A6036
:10169C0000BF0C37BD4680BC704700BFCC0000209B
:1016AC00D000002080B400AF214B1B68002B0BDD59
:1016BC001F4B1B68013B1E4A13601D4B1B68002B04
:1016CC0002DC1C4B01221A601B4B1B68002B0BDD30
:1016DC00194B1B68013B184A1360174B1B68002BF6
:1016EC0002DC164B01221A60154B1B68002B0BDD1C
:1016FC00134B1B68013B124A1360114B1B68002BE8
:10170C0002DC104B01221A600F4B1B68002B0BDD07
:10171C000D4B1B68013B0C4A13600B4B1B68002BD9
:10172C0002DC0A4B01221A6000BFBD4680BC704728
:10173C00B4000020B8000020BC000020C000002035
:10174C00C4000020C8000020CC000020D0000020E5
:10175C0080B485B000AF154B9B69144A43F001036C
:10176C009361124B9B6903F00103BB60BB680F4B89
:10177C00DB690E4A43F08053D3610C4BDB6903F0F9
:10178C0080537B607B680A4B5B68FB60FB6823F0D3
:10179C00E063FB60FB6843F08063FB60044AFB681A
:1017AC00536000BF1437BD4680BC70470010024028
:1017BC000000014080B584B000AF78607B681B6886
:1017CC00B3F1804F13D10C4BDB690B4A43F001038F
:1017DC00D361094BDB6903F00103FB60FB6800225A
:1017EC0000211C2000F0A1F91C2000F0BAF900BF68
:1017FC001037BD4680BD00BF0010024080B400AF62
:10180C00FEE780B400AFFEE780B400AFFEE780B423
:10181C0000AFFEE780B400AFFEE780B400AF00BFBE
:10182C00BD4680BC704780B400AF00BFBD4680BCD5
:10183C00704780B400AF00BFBD4680BC704780B518
:10184C0000AF00F07FF800BF80BD000080B500AF96
:10185C00024800F0E7FF00BF80BD00BFD4000020AD
:10186C0080B400AF00BFBD4680BC70470C480D492A
:10187C000D4A002302E0D458C4500433C4188C42DF
:10188C00F9D30A4A0A4C002301E013600432A24245
:10189C00FBD3FFF7E5FF01F00DFBFFF76DFD704784
:1018AC000000002050000020582F0008500000209D
:1018BC0020010020FEE7000080B500AF084B1B683C
:1018CC00074A43F010031360032000F023F90F20A4
:1018DC0000F008F8FFF73CFF0023184680BD00BF5E
:1018EC000020024080B582B000AF7860124B1A68BD
:1018FC00124B1B7819464FF47A73B3FBF1F3B2FB1E
:10190C00F3F3184600F03BF90346002B01D00123FA
:10191C000EE07B680F2B0AD8002279684FF0FF305D
:10192C0000F003F9064A7B681360002300E00123F2
:10193C0018460837BD4680BD440000204C000020EE
:10194C004800002080B400AF054B1B781A46054BAD
:10195C001B681344034A136000BFBD4680BC70472C
:10196C004C0000201C01002080B400AF024B1B680F
:10197C001846BD4680BC70471C01002080B485B061
:10198C0000AF78607B6803F00703FB600C4BDB68EF
:10199C00BB60BA684FF6FF031340BB60FB681A02CA
:1019AC00BB68134343F0BF6343F40033BB60044A8A
:1019BC00BB68D36000BF1437BD4680BC704700BF06
:1019CC0000ED00E080B400AF044BDB681B0A03F0B1
:1019DC0007031846BD4680BC704700BF00ED00E011
:1019EC0080B483B000AF0346FB7197F90730002B2E
:1019FC000BDBFB7903F01F02064997F907305B09F3
:101A0C00012000FA02F241F8232000BF0C37BD463A
:101A1C0080BC704700E100E080B483B000AF0346A7
:101A2C003960FB7197F90730002B0ADB3B68DAB29F
:101A3C000C4997F907301201D2B20B4483F80023FA
:101A4C000AE03B68DAB20849FB7903F00F03043B68
:101A5C001201D2B20B441A7600BF0C37BD4680BCC3
:101A6C00704700BF00E100E000ED00E080B489B0F9
:101A7C0000AFF860B9607A60FB6803F00703FB61A4
:101A8C00FB69C3F10703042B28BF0423BB61FB696B
:101A9C000433062B02D9FB69033B00E000237B6176
:101AAC004FF0FF32BB6902FA03F3DA43BB681A400A
:101ABC007B699A404FF0FF317B6901FA03F3D943FC
:101ACC007B680B40134318462437BD4680BC7047D7
:101ADC0080B582B000AF78607B68013BB3F1807F4A
:101AEC0001D301230FE00A4A7B68013B53600F21AD
:101AFC004FF0FF30FFF790FF054B00229A60044B2C
:101B0C0007221A60002318460837BD4680BD00BF67
:101B1C0010E000E080B582B000AF78607868FFF725
:101B2C002DFF00BF0837BD4680BD80B586B000AF25
:101B3C000346B9607A60FB7300237B61FFF742FFB9
:101B4C0078617A68B9687869FFF790FF024697F96F
:101B5C000F3011461846FFF75FFF00BF1837BD4620
:101B6C0080BD80B582B000AF0346FB7197F907309A
:101B7C001846FFF735FF00BF0837BD4680BD80B55E
:101B8C0082B000AF78607868FFF7A2FF0346184672
:101B9C000837BD4680BD000080B48BB000AF7860C4
:101BAC00396000237B6200233B6248E101227B6A9F
:101BBC0002FA03F3FB613B681B68FA691340BB61D3
:101BCC00BA69FB699A4240F037813B685B68A34A6B
:101BDC0093425ED0A14A934275D8A14A934258D001
:101BEC009F4A93426FD89F4A934252D09D4A934248
:101BFC0069D89D4A93424CD09B4A934263D89B4AE6
:101C0C00934246D0994A93425DD8122B2AD8122B74
:101C1C0059D801A252F823F09F1C0008791C000827
:101C2C008B1C0008CD1C0008D31C0008D31C00081A
:101C3C00D31C0008D31C0008D31C0008D31C0008BC
:101C4C00D31C0008D31C0008D31C0008D31C0008AC
:101C5C00D31C0008D31C0008D31C0008811C0008EE
:101C6C00951C0008824A934213D02CE03B68DB6839
:101C7C003B6229E03B68DB6804333B6224E03B6851
:101C8C00DB6808333B621FE03B68DB680C333B626C
:101C9C001AE03B689B68002B02D104233B6213E0E3
:101CAC003B689B68012B05D108233B627B68FA6972
:101CBC001A6109E008233B627B68FA695A6103E008
:101CCC0000233B6200E000BFBB69FF2B01D87B689F
:101CDC0001E07B6804337B61BB69FF2B02D87B6A14
:101CEC009B0002E07B6A083B9B003B617B691A68A6
:101CFC000F213B6901FA03F3DB431A40396A3B6954
:101D0C0001FA03F31A437B691A603B685B6803F0C2
:101D1C008053002B00F09080564B9B69554A43F042
:101D2C0001039361534B9B6903F00103BB60BB68D8
:101D3C00514A7B6A9B08023352F82330FB607B6A62
:101D4C0003F003039B000F2202FA03F3DB43FA6850
:101D5C001340FB607B68494A93420DD07B68484A2C
:101D6C00934207D07B68474A934201D1022304E097
:101D7C00032302E0012300E000237A6A02F003024D
:101D8C0092009340FA681343FB603B497B6A9B08C3
:101D9C000233FA6841F823203B685B6803F4803314
:101DAC00002B06D0384B1A683749BB6913430B60BC
:101DBC0006E0354B1A68BB69DB43334913400B60B3
:101DCC003B685B6803F40033002B06D02E4B5A683B
:101DDC002D49BB6913434B6006E02B4B5A68BB691A
:101DEC00DB43294913404B603B685B6803F4801369
:101DFC00002B06D0244B9A682349BB6913438B6094
:101E0C0006E0214B9A68BB69DB431F4913408B608A
:101E1C003B685B6803F40013002B06D01A4BDA689E
:101E2C001949BB691343CB6006E0174BDA68BB69F1
:101E3C00DB4315491340CB607B6A01337B623B6803
:101E4C001A687B6A22FA03F3002B7FF4AFAE00BF53
:101E5C0000BF2C37BD4680BC704700BF000032105D
:101E6C0000003110000022100000211000001210A0
:101E7C000000111000100240000001400008014059
:101E8C00000C0140001001400004014080B485B0FA
:101E9C0000AF78600B467B807B689A687B88134028
:101EAC00002B02D00123FB7301E00023FB73FB7BAF
:101EBC0018461437BD4680BC704780B483B000AF61
:101ECC0078600B467B8013467B707B78002B03D0AD
:101EDC007A887B681A6103E07B881A047B681A6134
:101EEC0000BF0C37BD4680BC704780B485B000AFD6
:101EFC0078600B467B807B68DB68FB607A88FB68CC
:101F0C0013401A04FB68D9437B880B401A437B6847
:101F1C001A6100BF1437BD4680BC704780B586B0CF
:101F2C0000AF78607B68002B01D101236CE27B68E9
:101F3C001B6803F00103002B00F08780924B5B6859
:101F4C0003F00C03042B0CD08F4B5B6803F00C03D9
:101F5C00082B12D18C4B5B6803F48033B3F5803FB4
:101F6C000BD1894B1B6803F40033002B6CD07B68BE
:101F7C005B68002B68D1012346E27B685B68B3F594
:101F8C00803F06D1804B1B687F4A43F4803313603B
:101F9C002EE07B685B68002B0CD17B4B1B687A4A6C
:101FAC0023F480331360784B1B68774A23F4802327
:101FBC0013601DE07B685B68B3F5A02F0CD1724BEE
:101FCC001B68714A43F4802313606F4B1B686E4A85
:101FDC0043F4803313600BE06B4B1B686A4A23F4A9
:101FEC0080331360684B1B68674A23F480231360AB
:101FFC007B685B68002B13D0FFF7B6FC386108E0F8
:10200C00FFF7B2FC02463B69D31A642B01D90323B8
:10201C00FAE15D4B1B6803F40033002BF0D014E0A5
:10202C00FFF7A2FC386108E0FFF79EFC02463B6913
:10203C00D31A642B01D90323E6E1534B1B6803F439
:10204C000033002BF0D100E000BF7B681B6803F06D
:10205C000203002B63D04C4B5B6803F00C03002B8A
:10206C000BD0494B5B6803F00C03082B1CD1464B7F
:10207C005B6803F48033002B16D1434B1B6803F0D1
:10208C000203002B05D07B681B69012B01D00123B7
:10209C00BAE13D4B1B6823F0F8027B685B69DB00FF
:1020AC00394913430B603AE07B681B69002B20D045
:1020BC00364B01221A60FFF757FC386108E0FFF736
:1020CC0053FC02463B69D31A022B01D903239BE133
:1020DC002D4B1B6803F00203002BF0D02A4B1B681E
:1020EC0023F0F8027B685B69DB00274913430B6024
:1020FC0015E0264B00221A60FFF736FC386108E029
:10210C00FFF732FC02463B69D31A022B01D9032399
:10211C007AE11D4B1B6803F00203002BF0D17B68A6
:10212C001B6803F00803002B3AD07B689B69002BDB
:10213C0019D0174B01221A60FFF716FC386108E022
:10214C00FFF712FC02463B69D31A022B01D9032379
:10215C005AE10D4B5B6A03F00203002BF0D0012017
:10216C0000F0A6FA1CE00A4B00221A60FFF7FCFBF9
:10217C0038610FE0FFF7F8FB02463B69D31A022BDC
:10218C0008D9032340E100BF001002400000424286
:10219C00800442429E4B5B6A03F00203002BE9D1A0
:1021AC007B681B6803F00403002B00F0A68000235F
:1021BC00FB75974BDB6903F08053002B0DD1944BCF
:1021CC00DB69934A43F08053D361914BDB6903F095
:1021DC008053BB60BB680123FB758E4B1B6803F4FB
:1021EC008073002B18D18B4B1B688A4A43F4807385
:1021FC001360FFF7B9FB386108E0FFF7B5FB024647
:10220C003B69D31A642B01D90323FDE0814B1B6876
:10221C0003F48073002BF0D07B68DB68012B06D1B4
:10222C007B4B1B6A7A4A43F0010313622DE07B68F7
:10223C00DB68002B0CD1764B1B6A754A23F001032B
:10224C001362734B1B6A724A23F0040313621CE083
:10225C007B68DB68052B0CD16D4B1B6A6C4A43F019
:10226C00040313626A4B1B6A694A43F0010313624D
:10227C000BE0674B1B6A664A23F001031362644B45
:10228C001B6A634A23F0040313627B68DB68002B30
:10229C0015D0FFF769FB38610AE0FFF765FB0246D2
:1022AC003B69D31A41F28832934201D90323ABE044
:1022BC00574B1B6A03F00203002BEED014E0FFF720
:1022CC0053FB38610AE0FFF74FFB02463B69D31A18
:1022DC0041F28832934201D9032395E04C4B1B6A9F
:1022EC0003F00203002BEED1FB7D012B05D1484BF3
:1022FC00DB69474A23F08053D3617B68DB69002B91
:10230C0000F08180424B5B6803F00C03082B61D01A
:10231C007B68DB69022B46D13F4B00221A60FFF72A
:10232C0023FB386108E0FFF71FFB02463B69D31A19
:10233C00022B01D9032367E0354B1B6803F00073B4
:10234C00002BF0D17B681B6AB3F5803F08D1304B72
:10235C005B6823F400327B689B682D4913434B6008
:10236C002B4B5B6823F474127B68196A7B685B6A7D
:10237C000B43274913434B60274B01221A60FFF78D
:10238C00F3FA386108E0FFF7EFFA02463B69D31A1B
:10239C00022B01D9032337E01D4B1B6803F000739C
:1023AC00002BF0D02FE01C4B00221A60FFF7DCFA58
:1023BC00386108E0FFF7D8FA02463B69D31A022BC2
:1023CC0001D9032320E0124B1B6803F00073002B90
:1023DC00F0D118E07B68DB69012B01D1012313E0FC
:1023EC000B4B5B68FB60FB6803F480327B681B6AF9
:1023FC009A4206D1FB6803F470127B685B6A9A42BE
:10240C0001D0012300E0002318461837BD4680BDDB
:10241C0000100240007000406000424280B584B061
:10242C0000AF786039607B68002B01D10123D0E0CC
:10243C006A4B1B6803F007033A689A4210D9674B42
:10244C001B6823F0070265493B6813430B60634B21
:10245C001B6803F007033A689A4201D00123B8E0E5
:10246C007B681B6803F00203002B20D07B681B6881
:10247C0003F00403002B05D0594B5B68584A43F416
:10248C00E06353607B681B6803F00803002B05D0E6
:10249C00534B5B68524A43F460535360504B5B6838
:1024AC0023F0F0027B689B684D4913434B607B68BB
:1024BC001B6803F00103002B40D07B685B68012B89
:1024CC0007D1474B1B6803F40033002B15D10123B4
:1024DC007FE07B685B68022B07D1414B1B6803F0E4
:1024EC000073002B09D1012373E03D4B1B6803F0F3
:1024FC000203002B01D101236BE0394B5B6823F005
:10250C0003027B685B68364913434B60FFF72CFA78
:10251C00F8600AE0FFF728FA0246FB68D31A41F28A
:10252C008832934201D9032353E02D4B5B6803F0AF
:10253C000C027B685B689B009A42EBD1274B1B68B3
:10254C0003F007033A689A4210D2244B1B6823F01D
:10255C00070222493B6813430B60204B1B6803F0B6
:10256C0007033A689A4201D0012332E07B681B686A
:10257C0003F00403002B08D0194B5B6823F4E062D2
:10258C007B68DB68164913434B607B681B6803F060
:10259C000803002B09D0124B5B6823F460527B6854
:1025AC001B69DB000E4913434B6000F021F8024617
:1025BC000B4B5B681B0903F00F030A49CB5C22FA37
:1025CC0003F3094A1360094B1B681846FFF78AF995
:1025DC00002318461037BD4680BD00BF00200240C6
:1025EC0000100240402F000844000020480000204A
:1025FC0090B48AB000AF2A4B3C1D0FCB84E80F007F
:10260C0040F201233B800023FB610023BB610023CC
:10261C007B6200237B6100233B62224B5B68FB6186
:10262C00FB6903F00C03042B02D0082B03D02DE024
:10263C001D4B3B622DE0FB699B0C03F00F0307F174
:10264C002802134413F8243C7B61FB6903F48033A8
:10265C00002B13D0134B5B685B0C03F0010307F1E9
:10266C002802134413F8283CBB617B690E4A02FB19
:10267C0003F2BB69B2FBF3F37B6204E07B690B4AA8
:10268C0002FB03F37B627B6A3B6202E0064B3B621C
:10269C0000BF3B6A18462837BD4690BC704700BF48
:1026AC00302F00080010024000127A0000093D0093
:1026BC0080B485B000AF78600A4B1B680A4AA2FB55
:1026CC0003235B0A7A6802FB03F3FB6000BFFB6821
:1026DC005A1EFA60002BF9D100BF00BF1437BD465B
:1026EC0080BC704744000020D34D621080B582B08E
:1026FC0000AF78607B68002B01D1012341E07B683F
:10270C0093F83D30DBB2002B06D17B68002283F8B6
:10271C003C207868FFF74EF87B68022283F83D2056
:10272C007B681A687B6804331946104600F06AFA15
:10273C007B68012283F846207B68012283F83E20C7
:10274C007B68012283F83F207B68012283F84020BC
:10275C007B68012283F841207B68012283F84220A8
:10276C007B68012283F843207B68012283F8442094
:10277C007B68012283F845207B68012283F83D2089
:10278C00002318460837BD4680BD000080B485B0D4
:10279C0000AF78607B6893F83D30DBB2012B01D041
:1027AC00012335E07B68022283F83D207B681B689F
:1027BC00DA687B681B6842F00102DA607B681B6890
:1027CC00164A934209D07B681B68B3F1804F04D042
:1027DC007B681B68124A934211D17B681B689B680B
:1027EC0003F00703FB60FB68062B10D07B681B68AB
:1027FC001A687B681B6842F001021A6007E07B686C
:10280C001B681A687B681B6842F001021A6000237F
:10281C0018461437BD4680BC704700BF002C0140E1
:10282C000004004080B582B000AF78607B681B6804
:10283C001B6903F00203022B22D17B681B68DB6847
:10284C0003F00203022B1BD17B681B686FF00202A2
:10285C001A617B6801221A777B681B689B6903F0FD
:10286C000303002B03D0786800F0B1F905E0786819
:10287C0000F0A4F9786800F0B3F97B6800221A77AD
:10288C007B681B681B6903F00403042B22D17B6853
:10289C001B68DB6803F00403042B1BD17B681B68EB
:1028AC006FF004021A617B6802221A777B681B683E
:1028BC009B6903F44073002B03D0786800F087F910
:1028CC0005E0786800F07AF9786800F089F97B689F
:1028DC0000221A777B681B681B6903F00803082B1E
:1028EC0022D17B681B68DB6803F00803082B1BD123
:1028FC007B681B686FF008021A617B6804221A77E8
:10290C007B681B68DB6903F00303002B03D078683A
:10291C0000F05DF905E0786800F050F9786800F097
:10292C005FF97B6800221A777B681B681B6903F0D0
:10293C001003102B22D17B681B68DB6803F010039B
:10294C00102B1BD17B681B686FF010021A617B681F
:10295C0008221A777B681B68DB6903F44073002B31
:10296C0003D0786800F033F905E0786800F026F9B8
:10297C00786800F035F97B6800221A777B681B6851
:10298C001B6903F00103012B0ED17B681B68DB680C
:10299C0003F00103012B07D17B681B686FF0010268
:1029AC001A617868FEF71CFE7B681B681B6903F0D4
:1029BC008003802B0ED17B681B68DB6803F08003DF
:1029CC00802B07D17B681B686FF080021A617868D6
:1029DC0000F067FA7B681B681B6903F04003402B0F
:1029EC000ED17B681B68DB6803F04003402B07D1DA
:1029FC007B681B686FF040021A61786800F0F9F888
:102A0C007B681B681B6903F02003202B0ED17B68AD
:102A1C001B68DB6803F02003202B07D17B681B6845
:102A2C006FF020021A61786800F032FA00BF0837A4
:102A3C00BD4680BD80B584B000AF786039607B68DE
:102A4C0093F83C30012B01D10223B3E07B680122C7
:102A5C0083F83C207B68022283F83D207B681B684E
:102A6C009B68FB60FB6823F07703FB60FB6823F437
:102A7C007F43FB607B681B68FA689A603B681B6845
:102A8C00B3F5005F3ED0B3F5005F00F28780B3F57D
:102A9C00805F00F08580B3F5805F7FD8702B1AD0F3
:102AAC00702B7BD8602B50D0602B77D8502B3CD020
:102ABC00502B73D8402B58D0402B6FD8302B64D070
:102ACC00302B6BD8202B60D0202B67D8002B5CD000
:102ADC00102B5AD062E07B6818683B6899683B6899
:102AEC005A683B68DB6800F05CF97B681B689B6884
:102AFC00FB60FB6843F07703FB607B681B68FA683C
:102B0C009A604EE07B6818683B6899683B685A6825
:102B1C003B68DB6800F045F97B681B689A687B684A
:102B2C001B6842F480429A603BE07B6818683B6803
:102B3C0059683B68DB681A4600F0BCF87B681B6878
:102B4C005021184600F013F92BE07B6818683B689D
:102B5C0059683B68DB681A4600F0DAF87B681B683A
:102B6C006021184600F003F91BE07B6818683B688D
:102B7C0059683B68DB681A4600F09CF87B681B6858
:102B8C004021184600F0F3F80BE07B681A683B68AC
:102B9C001B681946104600F0EAF802E000BF00E09E
:102BAC0000BF7B68012283F83D207B68002283F8FC
:102BBC003C20002318461037BD4680BD80B483B03E
:102BCC0000AF786000BF0C37BD4680BC704780B446
:102BDC0083B000AF786000BF0C37BD4680BC704737
:102BEC0080B483B000AF786000BF0C37BD4680BCAA
:102BFC00704780B483B000AF786000BF0C37BD461F
:102C0C0080BC704780B485B000AF786039607B6859
:102C1C001B68FB607B68254A934207D07B68B3F145
:102C2C00804F03D07B68224A934208D1FB6823F083
:102C3C007003FB603B685B68FA681343FB607B685E
:102C4C001A4A934207D07B68B3F1804F03D07B685C
:102C5C00174A934208D1FB6823F44073FB603B682E
:102C6C00DB68FA681343FB60FB6823F080023B6867
:102C7C005B691343FB607B68FA681A603B689A686F
:102C8C007B68DA623B681A687B689A627B68074AE1
:102C9C00934203D13B681A697B681A637B680122F3
:102CAC005A6100BF1437BD4680BC7047002C0140F0
:102CBC000004004080B487B000AFF860B9607A605F
:102CCC00FB681B6A7B61FB681B6A23F00102FB68D3
:102CDC001A62FB689B693B613B6923F0F0033B6123
:102CEC007B681B013A6913433B617B6923F00A0340
:102CFC007B617A69BB6813437B61FB683A699A61B3
:102D0C00FB687A691A6200BF1C37BD4680BC7047ED
:102D1C0080B487B000AFF860B9607A60FB681B6A5A
:102D2C0023F01002FB681A62FB689B697B61FB68ED
:102D3C001B6A3B617B6923F470437B617B681B03DB
:102D4C007A6913437B613B6923F0A0033B61BB6849
:102D5C001B013A6913433B61FB687A699A61FB6812
:102D6C003A691A6200BF1C37BD4680BC704780B4FC
:102D7C0085B000AF786039607B689B68FB60FB684E
:102D8C0023F07003FB603A68FB68134343F00703BE
:102D9C00FB607B68FA689A6000BF1437BD4680BC44
:102DAC00704780B487B000AFF860B9607A603B6060
:102DBC00FB689B687B617B6923F47F437B613B6889
:102DCC001A027B681A43BB6813437A6913437B610D
:102DDC00FB687A699A6000BF1C37BD4680BC70479F
:102DEC0080B485B000AF786039607B6893F83C3074
:102DFC00012B01D1022341E07B68012283F83C20A6
:102E0C007B68022283F83D207B681B685B68FB6053
:102E1C007B681B689B68BB60FB6823F07003FB60DE
:102E2C003B681B68FA681343FB607B681B68FA6895
:102E3C005A607B681B68144A934209D07B681B68F4
:102E4C00B3F1804F04D07B681B68104A93420CD1BD
:102E5C00BB6823F08003BB603B685B68BA681343B4
:102E6C00BB607B681B68BA689A607B68012283F838
:102E7C003D207B68002283F83C2000231846143741
:102E8C00BD4680BC704700BF002C014000040040D0
:102E9C0080B483B000AF786000BF0C37BD4680BCF7
:102EAC00704780B483B000AF786000BF0C37BD466C
:102EBC0080BC704770B500260C4D0D4C641BA410E3
:102ECC00A64209D100F022F800260A4D0A4C641BD8
:102EDC00A410A64205D170BD55F8043B98470136A5
:102EEC00EEE755F8043B98470136F2E7502F0008FF
:102EFC00502F0008502F0008542F0008034602449E
:102F0C00934200D1704703F8011BF9E7F8B500BFF5
:102F1C00F8BC08BC9E467047F8B500BFF8BC08BCAE
:042F2C009E46704706
:102F300002030405060708090A0B0C0D0E0F1010FA
:102F40000000000000000000010203040607080959
:042F50003101000843
:042F54000D01000863
:102F58000100000000000000000000000100000067
:102F68000000000000000000010000000000000058
:102F78000000000001000000000000000000000048
:102F88002C010000F40100002C010000C800000022
:102F9800080000000024F4001000000001000000F8
:04000005080018795E
:00000001FF
